{
  "contractName": "Election",
  "abi": [
    {
      "inputs": [],
      "payable": false,
      "stateMutability": "nonpayable",
      "type": "constructor"
    },
    {
      "anonymous": false,
      "inputs": [
        {
          "indexed": true,
          "internalType": "uint256",
          "name": "_candidateId",
          "type": "uint256"
        }
      ],
      "name": "votedEvent",
      "type": "event"
    },
    {
      "constant": true,
      "inputs": [],
      "name": "candidate",
      "outputs": [
        {
          "internalType": "string",
          "name": "",
          "type": "string"
        }
      ],
      "payable": false,
      "stateMutability": "view",
      "type": "function"
    },
    {
      "constant": true,
      "inputs": [
        {
          "internalType": "uint256",
          "name": "",
          "type": "uint256"
        }
      ],
      "name": "candidates",
      "outputs": [
        {
          "internalType": "uint256",
          "name": "id",
          "type": "uint256"
        },
        {
          "internalType": "string",
          "name": "name",
          "type": "string"
        },
        {
          "internalType": "string",
          "name": "category",
          "type": "string"
        },
        {
          "internalType": "uint256",
          "name": "voteCount",
          "type": "uint256"
        }
      ],
      "payable": false,
      "stateMutability": "view",
      "type": "function"
    },
    {
      "constant": true,
      "inputs": [],
      "name": "candidatesCount",
      "outputs": [
        {
          "internalType": "uint256",
          "name": "",
          "type": "uint256"
        }
      ],
      "payable": false,
      "stateMutability": "view",
      "type": "function"
    },
    {
      "constant": true,
      "inputs": [
        {
          "internalType": "address",
          "name": "",
          "type": "address"
        }
      ],
      "name": "voters",
      "outputs": [
        {
          "internalType": "bool",
          "name": "",
          "type": "bool"
        }
      ],
      "payable": false,
      "stateMutability": "view",
      "type": "function"
    },
    {
      "constant": false,
      "inputs": [
        {
          "internalType": "uint256",
          "name": "_candidateId",
          "type": "uint256"
        }
      ],
      "name": "vote",
      "outputs": [],
      "payable": false,
      "stateMutability": "nonpayable",
      "type": "function"
    }
  ],
  "bytecode": "0x608060405234801561001057600080fd5b5061008b6040518060400160405280600b81526020017f43616e64696461746520310000000000000000000000000000000000000000008152506040518060400160405280600381526020017f4d4c41000000000000000000000000000000000000000000000000000000000081525061010a60201b60201c565b6101056040518060400160405280600b81526020017f43616e64696461746520320000000000000000000000000000000000000000008152506040518060400160405280600381526020017f4d4c41000000000000000000000000000000000000000000000000000000000081525061010a60201b60201c565b61024f565b60036000815480929190600101919050555060405180608001604052806003548152602001838152602001828152602001600081525060026000600354815260200190815260200160002060008201518160000155602082015181600101908051906020019061017b9291906101aa565b5060408201518160020190805190602001906101989291906101aa565b50606082015181600301559050505050565b828054600181600116156101000203166002900490600052602060002090601f016020900481019282601f106101eb57805160ff1916838001178555610219565b82800160010185558215610219579182015b828111156102185782518255916020019190600101906101fd565b5b509050610226919061022a565b5090565b61024c91905b80821115610248576000816000905550600101610230565b5090565b90565b6106208061025e6000396000f3fe608060405234801561001057600080fd5b50600436106100575760003560e01c80630121b93f1461005c5780632d35a8a21461008a5780633477ee2e146100a85780636c8381f8146101c9578063a3ec138d1461024c575b600080fd5b6100886004803603602081101561007257600080fd5b81019080803590602001909291905050506102a8565b005b6100926103c7565b6040518082815260200191505060405180910390f35b6100d4600480360360208110156100be57600080fd5b81019080803590602001909291905050506103cd565b604051808581526020018060200180602001848152602001838103835286818151815260200191508051906020019080838360005b83811015610124578082015181840152602081019050610109565b50505050905090810190601f1680156101515780820380516001836020036101000a031916815260200191505b50838103825285818151815260200191508051906020019080838360005b8381101561018a57808201518184015260208101905061016f565b50505050905090810190601f1680156101b75780820380516001836020036101000a031916815260200191505b50965050505050505060405180910390f35b6101d161052d565b6040518080602001828103825283818151815260200191508051906020019080838360005b838110156102115780820151818401526020810190506101f6565b50505050905090810190601f16801561023e5780820380516001836020036101000a031916815260200191505b509250505060405180910390f35b61028e6004803603602081101561026257600080fd5b81019080803573ffffffffffffffffffffffffffffffffffffffff1690602001909291905050506105cb565b604051808215151515815260200191505060405180910390f35b600160003373ffffffffffffffffffffffffffffffffffffffff1673ffffffffffffffffffffffffffffffffffffffff16815260200190815260200160002060009054906101000a900460ff16156102ff57600080fd5b60008111801561031157506003548111155b61031a57600080fd5b60018060003373ffffffffffffffffffffffffffffffffffffffff1673ffffffffffffffffffffffffffffffffffffffff16815260200190815260200160002060006101000a81548160ff0219169083151502179055506002600082815260200190815260200160002060030160008154809291906001019190505550807ffff3c900d938d21d0990d786e819f29b8d05c1ef587b462b939609625b684b1660405160405180910390a250565b60035481565b6002602052806000526040600020600091509050806000015490806001018054600181600116156101000203166002900480601f01602080910402602001604051908101604052809291908181526020018280546001816001161561010002031660029004801561047f5780601f106104545761010080835404028352916020019161047f565b820191906000526020600020905b81548152906001019060200180831161046257829003601f168201915b505050505090806002018054600181600116156101000203166002900480601f01602080910402602001604051908101604052809291908181526020018280546001816001161561010002031660029004801561051d5780601f106104f25761010080835404028352916020019161051d565b820191906000526020600020905b81548152906001019060200180831161050057829003601f168201915b5050505050908060030154905084565b60008054600181600116156101000203166002900480601f0160208091040260200160405190810160405280929190818152602001828054600181600116156101000203166002900480156105c35780601f10610598576101008083540402835291602001916105c3565b820191906000526020600020905b8154815290600101906020018083116105a657829003601f168201915b505050505081565b60016020528060005260406000206000915054906101000a900460ff168156fea265627a7a723158204c4bdb247966066231923c936e06c241460fcd2d9d7d10b21f4c65e2a3cb622e64736f6c63430005100032",
  "source": "pragma solidity >=0.5.1;\r\n\r\ncontract Election {\r\n    // Model a Candidate\r\n\r\n    string public candidate;\r\n\r\n    struct Candidate {\r\n        uint id;\r\n        string name;\r\n        string category;\r\n        uint voteCount;\r\n    }\r\n\r\n    // // Store accounts that have voted\r\n    // mapping(address => mapping(string => bool)) public voters;\r\n    mapping(address => bool) public voters;\r\n    // // Store Candidates\r\n    // // Fetch Candidate\r\n    mapping(uint => Candidate) public candidates;\r\n    // // Store Candidates Count\r\n    uint public candidatesCount;\r\n\r\n    // // voted event\r\n    event votedEvent (\r\n        uint indexed _candidateId\r\n    );\r\n\r\n    constructor() public  {\r\n        addCandidate(\"Candidate 1\",\"MLA\");\r\n        addCandidate(\"Candidate 2\",\"MLA\");\r\n    }\r\n\r\n    function addCandidate (string memory _name,string memory _position) private {\r\n        candidatesCount ++;\r\n        candidates[candidatesCount] = Candidate(candidatesCount, _name, _position, 0);\r\n    }\r\n\r\n    function concat(string memory _base, string memory _value) internal returns (string memory) {\r\n        bytes memory _baseBytes = bytes(_base);\r\n        bytes memory _valueBytes = bytes(_value);\r\n\r\n        string memory _tmpValue = new string(_baseBytes.length + _valueBytes.length);\r\n        bytes memory _newValue = bytes(_tmpValue);\r\n\r\n        uint i;\r\n        uint j;\r\n\r\n        for(i=0; i<_baseBytes.length; i++) {\r\n            _newValue[j++] = _baseBytes[i];\r\n        }\r\n\r\n        for(i=0; i<_valueBytes.length; i++) {\r\n            _newValue[j++] = _valueBytes[i];\r\n        }\r\n\r\n        return string(_newValue);\r\n    }\r\n\r\n    function vote (uint _candidateId) public {\r\n        // require that they haven't voted before\r\n        require(!voters[msg.sender]);\r\n        // .concat(_category)]);\r\n\r\n        // require a valid candidate\r\n        require(_candidateId > 0 && _candidateId <= candidatesCount);\r\n\r\n        // record that voter has voted\r\n        // voters[string(abi.encodePacked(msg.sender)).concat(_category)] = true;\r\n        voters[msg.sender] = true;\r\n        // update candidate vote Count\r\n        candidates[_candidateId].voteCount ++;\r\n\r\n        // trigger voted event\r\n        emit votedEvent(_candidateId);\r\n    }\r\n}\r\n\r\n// vote for many posns\r\n// hide no of votes till end of reflection (put timer and close)\r\n// ",
  "sourcePath": "D:/Synergy/Hackathon/contracts/Election.sol",
  "compiler": {
    "name": "solc",
    "version": "0.5.16+commit.9c3226ce.Emscripten.clang"
  },
  "schemaVersion": "3.2.5",
  "updatedAt": "2022-02-13T16:52:38.950Z",
  "networkType": "ethereum",
  "devdoc": {
    "methods": {}
  },
  "userdoc": {
    "methods": {}
  }
}